:020000040800F2
:1000000000500020CD0100081D0200081D0200085C
:100010001D0200081D0200081D020008000000006B
:100020000000000000000000000000001D020008A9
:100030001D020008000000001D0200081D0200084B
:100040001D0200081D0200081D0200081D02000814
:100050001D0200081D0200081D0200081D02000804
:100060001D0200081D0200081D0200081D020008F4
:100070001D0200081D0200081D0200081D020008E4
:100080001D0200081D0200081D0200081D020008D4
:100090001D0200081D0200081D0200081D020008C4
:1000A0001D0200081D0200081D0200081D020008B4
:1000B0001D0200081D0200081D0200081D020008A4
:1000C0001D0200081D0200081D0200081D02000894
:1000D0001D0200081D0200081D0200081D02000884
:1000E0001D0200081D020008000000001D0200089B
:1000F0001D0200081D0200081D0200081D02000864
:100100001D0200081D0200081D0200081D02000853
:100110001D0200081D0200081D0200081D02000843
:100120001D0200081D0200081D0200081D02000833
:1001300010B5054C237833B9044B13B10448AFF321
:1001400000800123237010BD00000020000000008B
:100150006802000808B5034B1BB103490348AFF31D
:10016000008008BD000000000400002068020008B4
:100170001248016841F0040101601148016821F052
:100180000F0141F0010121F4706141F4807121F40B
:10019000704141F4805101600A48016841F00D014D
:1001A000016000F007F80748016821F008010160CC
:1001B000FFE7FEE7044A013AFDD1704718100240FC
:1001C000000801400C08014000093D000D4885462B
:1001D000AFF300800C480D490D4A002302E0D458CB
:1001E000C4500433C4188C42F9D30A4A0A4C002381
:1001F00001E013600432A242FBD300F011F8FFF7D4
:10020000B7FFFEE7005000200000002000000020A3
:1002100088020008000000201C000020FEE700000B
:1002200070B500260C4D0D4C641BA410A64209D1DC
:1002300000F01AF800260A4D0A4C641BA410A642CE
:1002400005D170BD55F8043B98470136EEE755F8E7
:10025000043B98470136F2E780020008800200085C
:100260008002000884020008F8B500BFF8BC08BC92
:100270009E467047F8B500BFF8BC08BC9E46704764
:04028000550100081C
:04028400310100083C
:04000005080001CD21
:00000001FF
