:020000040800F2
:1000000000500020B9010008090200080902000898
:1000100009020008090200080902000800000000A7
:1000200000000000000000000000000009020008BD
:100030000902000800000000090200080902000887
:100040000902000809020008090200080902000864
:100050000902000809020008090200080902000854
:100060000902000809020008090200080902000844
:100070000902000809020008090200080902000834
:100080000902000809020008090200080902000824
:100090000902000809020008090200080902000814
:1000A0000902000809020008090200080902000804
:1000B00009020008090200080902000809020008F4
:1000C00009020008090200080902000809020008E4
:1000D00009020008090200080902000809020008D4
:1000E00009020008090200080000000009020008D7
:1000F00009020008090200080902000809020008B4
:1001000009020008090200080902000809020008A3
:100110000902000809020008090200080902000893
:100120000902000809020008090200080902000883
:1001300010B5054C237833B9044B13B10448AFF321
:1001400000800123237010BD00000020000000008B
:100150005402000808B5034B1BB103490348AFF331
:10016000008008BD000000000400002054020008C8
:100170000D4801680422114301600C4801680F22F8
:1001800012069143012212061143016008480168DA
:1001900040225140016000F001F8F7E7054A013ABA
:1001A000002AFCD1704700001810024000080140EE
:1001B0000C08014000093D000D488546AFF3008062
:1001C0000C480D490D4A002302E0D458C4500433B2
:1001D000C4188C42F9D30A4A0A4C002301E0136088
:1001E0000432A242FBD300F011F8FFF7C1FFFEE793
:1001F00000500020000000200000002074020008D1
:10020000000000201C000020FEE7000070B5002662
:100210000C4D0D4C641BA410A64209D100F01AF835
:1002200000260A4D0A4C641BA410A64205D170BDDD
:1002300055F8043B98470136EEE755F8043B9847DC
:100240000136F2E76C0200086C0200086C0200083C
:1002500070020008F8B500BFF8BC08BC9E467047A5
:0C026000F8B500BFF8BC08BC9E46704713
:04026C005501000830
:040270003101000850
:04000005080001B935
:00000001FF
